{
  "contractName": "Crud",
  "abi": [
    {
      "inputs": [],
      "name": "nextId",
      "outputs": [
        {
          "internalType": "uint256",
          "name": "",
          "type": "uint256"
        }
      ],
      "stateMutability": "view",
      "type": "function"
    },
    {
      "inputs": [
        {
          "internalType": "uint256",
          "name": "",
          "type": "uint256"
        }
      ],
      "name": "users",
      "outputs": [
        {
          "internalType": "uint256",
          "name": "id",
          "type": "uint256"
        },
        {
          "internalType": "string",
          "name": "name",
          "type": "string"
        }
      ],
      "stateMutability": "view",
      "type": "function"
    },
    {
      "inputs": [
        {
          "internalType": "string",
          "name": "name",
          "type": "string"
        }
      ],
      "name": "create",
      "outputs": [],
      "stateMutability": "nonpayable",
      "type": "function"
    },
    {
      "inputs": [
        {
          "internalType": "uint256",
          "name": "id",
          "type": "uint256"
        }
      ],
      "name": "read",
      "outputs": [
        {
          "internalType": "uint256",
          "name": "",
          "type": "uint256"
        },
        {
          "internalType": "string",
          "name": "",
          "type": "string"
        }
      ],
      "stateMutability": "view",
      "type": "function"
    },
    {
      "inputs": [
        {
          "internalType": "uint256",
          "name": "id",
          "type": "uint256"
        },
        {
          "internalType": "string",
          "name": "name",
          "type": "string"
        }
      ],
      "name": "update",
      "outputs": [],
      "stateMutability": "nonpayable",
      "type": "function"
    },
    {
      "inputs": [
        {
          "internalType": "uint256",
          "name": "id",
          "type": "uint256"
        }
      ],
      "name": "destroy",
      "outputs": [],
      "stateMutability": "nonpayable",
      "type": "function"
    }
  ],
  "bytecode": "0x60806040526001805534801561001457600080fd5b50610c5d806100246000396000f3fe608060405234801561001057600080fd5b50600436106100625760003560e01c8063365b98b21461006757806361b8ce8c146100985780639d118770146100b6578063b6a46b3b146100d2578063ed2e5a97146100ee578063f745630f1461011f575b600080fd5b610081600480360381019061007c9190610546565b61013b565b60405161008f929190610612565b60405180910390f35b6100a06101f7565b6040516100ad9190610642565b60405180910390f35b6100d060048036038101906100cb9190610546565b6101fd565b005b6100ec60048036038101906100e79190610792565b61024b565b005b61010860048036038101906101039190610546565b6102ca565b604051610116929190610612565b60405180910390f35b610139600480360381019061013491906107db565b6103bc565b005b6000818154811061014b57600080fd5b906000526020600020906002020160009150905080600001549080600101805461017490610866565b80601f01602080910402602001604051908101604052809291908181526020018280546101a090610866565b80156101ed5780601f106101c2576101008083540402835291602001916101ed565b820191906000526020600020905b8154815290600101906020018083116101d057829003601f168201915b5050505050905082565b60015481565b600061020882610401565b90506000818154811061021e5761021d610897565b5b9060005260206000209060020201600080820160009055600182016000610245919061049f565b50505050565b6000604051806040016040528060015481526020018381525090806001815401808255809150506001900390600052602060002090600202016000909190919091506000820151816000015560208201518160010190816102ac9190610a72565b505050600160008154809291906102c290610b73565b919050555050565b6000606060006102d984610401565b9050600081815481106102ef576102ee610897565b5b9060005260206000209060020201600001546000828154811061031557610314610897565b5b906000526020600020906002020160010180805461033290610866565b80601f016020809104026020016040519081016040528092919081815260200182805461035e90610866565b80156103ab5780601f10610380576101008083540402835291602001916103ab565b820191906000526020600020905b81548152906001019060200180831161038e57829003601f168201915b505050505090509250925050915091565b60006103c783610401565b905081600082815481106103de576103dd610897565b5b906000526020600020906002020160010190816103fb9190610a72565b50505050565b600080600090505b60008054905081101561045e57826000828154811061042b5761042a610897565b5b9060005260206000209060020201600001540361044b578091505061049a565b808061045690610b73565b915050610409565b506040517f08c379a000000000000000000000000000000000000000000000000000000000815260040161049190610c07565b60405180910390fd5b919050565b5080546104ab90610866565b6000825580601f106104bd57506104dc565b601f0160209004906000526020600020908101906104db91906104df565b5b50565b5b808211156104f85760008160009055506001016104e0565b5090565b6000604051905090565b600080fd5b600080fd5b6000819050919050565b61052381610510565b811461052e57600080fd5b50565b6000813590506105408161051a565b92915050565b60006020828403121561055c5761055b610506565b5b600061056a84828501610531565b91505092915050565b61057c81610510565b82525050565b600081519050919050565b600082825260208201905092915050565b60005b838110156105bc5780820151818401526020810190506105a1565b60008484015250505050565b6000601f19601f8301169050919050565b60006105e482610582565b6105ee818561058d565b93506105fe81856020860161059e565b610607816105c8565b840191505092915050565b60006040820190506106276000830185610573565b818103602083015261063981846105d9565b90509392505050565b60006020820190506106576000830184610573565b92915050565b600080fd5b600080fd5b7f4e487b7100000000000000000000000000000000000000000000000000000000600052604160045260246000fd5b61069f826105c8565b810181811067ffffffffffffffff821117156106be576106bd610667565b5b80604052505050565b60006106d16104fc565b90506106dd8282610696565b919050565b600067ffffffffffffffff8211156106fd576106fc610667565b5b610706826105c8565b9050602081019050919050565b82818337600083830152505050565b6000610735610730846106e2565b6106c7565b90508281526020810184848401111561075157610750610662565b5b61075c848285610713565b509392505050565b600082601f8301126107795761077861065d565b5b8135610789848260208601610722565b91505092915050565b6000602082840312156107a8576107a7610506565b5b600082013567ffffffffffffffff8111156107c6576107c561050b565b5b6107d284828501610764565b91505092915050565b600080604083850312156107f2576107f1610506565b5b600061080085828601610531565b925050602083013567ffffffffffffffff8111156108215761082061050b565b5b61082d85828601610764565b9150509250929050565b7f4e487b7100000000000000000000000000000000000000000000000000000000600052602260045260246000fd5b6000600282049050600182168061087e57607f821691505b60208210810361089157610890610837565b5b50919050565b7f4e487b7100000000000000000000000000000000000000000000000000000000600052603260045260246000fd5b60008190508160005260206000209050919050565b60006020601f8301049050919050565b600082821b905092915050565b6000600883026109287fffffffffffffffffffffffffffffffffffffffffffffffffffffffffffffffff826108eb565b61093286836108eb565b95508019841693508086168417925050509392505050565b6000819050919050565b600061096f61096a61096584610510565b61094a565b610510565b9050919050565b6000819050919050565b61098983610954565b61099d61099582610976565b8484546108f8565b825550505050565b600090565b6109b26109a5565b6109bd818484610980565b505050565b5b818110156109e1576109d66000826109aa565b6001810190506109c3565b5050565b601f821115610a26576109f7816108c6565b610a00846108db565b81016020851015610a0f578190505b610a23610a1b856108db565b8301826109c2565b50505b505050565b600082821c905092915050565b6000610a4960001984600802610a2b565b1980831691505092915050565b6000610a628383610a38565b9150826002028217905092915050565b610a7b82610582565b67ffffffffffffffff811115610a9457610a93610667565b5b610a9e8254610866565b610aa98282856109e5565b600060209050601f831160018114610adc5760008415610aca578287015190505b610ad48582610a56565b865550610b3c565b601f198416610aea866108c6565b60005b82811015610b1257848901518255600182019150602085019450602081019050610aed565b86831015610b2f5784890151610b2b601f891682610a38565b8355505b6001600288020188555050505b505050505050565b7f4e487b7100000000000000000000000000000000000000000000000000000000600052601160045260246000fd5b6000610b7e82610510565b91507fffffffffffffffffffffffffffffffffffffffffffffffffffffffffffffffff8203610bb057610baf610b44565b5b600182019050919050565b7f5573657220646f6573206e6f7420657869737421000000000000000000000000600082015250565b6000610bf160148361058d565b9150610bfc82610bbb565b602082019050919050565b60006020820190508181036000830152610c2081610be4565b905091905056fea26469706673582212202ed716f67efece94ffc2dd68c84480654c224cc3f7a3ad180421e7298c784d4364736f6c63430008110033",
  "immutableReferences": {},
  "source": "pragma solidity ^0.8.17;\r\n\r\ncontract Crud {\r\n  struct User {\r\n    uint id;\r\n    string name;\r\n  }\r\n  User[] public users;\r\n  uint public nextId = 1;\r\n\r\n  function create(string memory name) public {\r\n    users.push(User(nextId, name));\r\n    nextId++;\r\n  }\r\n\r\n  function read(uint id) view public returns(uint, string memory) {\r\n    uint i = find(id);\r\n    return(users[i].id, users[i].name);\r\n  }\r\n\r\n  function update(uint id, string memory name) public {\r\n    uint i = find(id);\r\n    users[i].name = name;\r\n  }\r\n\r\n  function destroy(uint id) public {\r\n    uint i = find(id);\r\n    delete users[i];\r\n  }\r\n\r\n  function find(uint id) view internal returns(uint) {\r\n    for(uint i = 0; i < users.length; i++) {\r\n      if(users[i].id == id) {\r\n        return i;\r\n      }\r\n    }\r\n    revert('User does not exist!');\r\n  }\r\n\r\n}",
  "sourcePath": "C:\\Users\\18323\\Desktop\\Crud\\contracts\\Crud.sol",
  "compiler": {
    "name": "solc",
    "version": "0.8.17+commit.8df45f5f.Emscripten.clang"
  },
  "schemaVersion": "3.4.10",
  "updatedAt": "2022-10-19T14:31:45.121Z",
  "devdoc": {
    "kind": "dev",
    "methods": {},
    "version": 1
  },
  "userdoc": {
    "kind": "user",
    "methods": {},
    "version": 1
  }
}