{
  "contractName": "Mountaintoken",
  "abi": [
    {
      "inputs": [
        {
          "internalType": "uint256",
          "name": "cap",
          "type": "uint256"
        },
        {
          "internalType": "uint256",
          "name": "reward",
          "type": "uint256"
        }
      ],
      "stateMutability": "nonpayable",
      "type": "constructor"
    },
    {
      "anonymous": false,
      "inputs": [
        {
          "indexed": true,
          "internalType": "address",
          "name": "owner",
          "type": "address"
        },
        {
          "indexed": true,
          "internalType": "address",
          "name": "spender",
          "type": "address"
        },
        {
          "indexed": false,
          "internalType": "uint256",
          "name": "value",
          "type": "uint256"
        }
      ],
      "name": "Approval",
      "type": "event"
    },
    {
      "anonymous": false,
      "inputs": [
        {
          "indexed": true,
          "internalType": "address",
          "name": "from",
          "type": "address"
        },
        {
          "indexed": true,
          "internalType": "address",
          "name": "to",
          "type": "address"
        },
        {
          "indexed": false,
          "internalType": "uint256",
          "name": "value",
          "type": "uint256"
        }
      ],
      "name": "Transfer",
      "type": "event"
    },
    {
      "inputs": [
        {
          "internalType": "address",
          "name": "owner",
          "type": "address"
        },
        {
          "internalType": "address",
          "name": "spender",
          "type": "address"
        }
      ],
      "name": "allowance",
      "outputs": [
        {
          "internalType": "uint256",
          "name": "",
          "type": "uint256"
        }
      ],
      "stateMutability": "view",
      "type": "function"
    },
    {
      "inputs": [
        {
          "internalType": "address",
          "name": "spender",
          "type": "address"
        },
        {
          "internalType": "uint256",
          "name": "amount",
          "type": "uint256"
        }
      ],
      "name": "approve",
      "outputs": [
        {
          "internalType": "bool",
          "name": "",
          "type": "bool"
        }
      ],
      "stateMutability": "nonpayable",
      "type": "function"
    },
    {
      "inputs": [
        {
          "internalType": "address",
          "name": "account",
          "type": "address"
        }
      ],
      "name": "balanceOf",
      "outputs": [
        {
          "internalType": "uint256",
          "name": "",
          "type": "uint256"
        }
      ],
      "stateMutability": "view",
      "type": "function"
    },
    {
      "inputs": [],
      "name": "blockReward",
      "outputs": [
        {
          "internalType": "uint256",
          "name": "",
          "type": "uint256"
        }
      ],
      "stateMutability": "view",
      "type": "function"
    },
    {
      "inputs": [
        {
          "internalType": "uint256",
          "name": "amount",
          "type": "uint256"
        }
      ],
      "name": "burn",
      "outputs": [],
      "stateMutability": "nonpayable",
      "type": "function"
    },
    {
      "inputs": [
        {
          "internalType": "address",
          "name": "account",
          "type": "address"
        },
        {
          "internalType": "uint256",
          "name": "amount",
          "type": "uint256"
        }
      ],
      "name": "burnFrom",
      "outputs": [],
      "stateMutability": "nonpayable",
      "type": "function"
    },
    {
      "inputs": [],
      "name": "cap",
      "outputs": [
        {
          "internalType": "uint256",
          "name": "",
          "type": "uint256"
        }
      ],
      "stateMutability": "view",
      "type": "function"
    },
    {
      "inputs": [],
      "name": "decimals",
      "outputs": [
        {
          "internalType": "uint8",
          "name": "",
          "type": "uint8"
        }
      ],
      "stateMutability": "view",
      "type": "function"
    },
    {
      "inputs": [
        {
          "internalType": "address",
          "name": "spender",
          "type": "address"
        },
        {
          "internalType": "uint256",
          "name": "subtractedValue",
          "type": "uint256"
        }
      ],
      "name": "decreaseAllowance",
      "outputs": [
        {
          "internalType": "bool",
          "name": "",
          "type": "bool"
        }
      ],
      "stateMutability": "nonpayable",
      "type": "function"
    },
    {
      "inputs": [
        {
          "internalType": "address",
          "name": "spender",
          "type": "address"
        },
        {
          "internalType": "uint256",
          "name": "addedValue",
          "type": "uint256"
        }
      ],
      "name": "increaseAllowance",
      "outputs": [
        {
          "internalType": "bool",
          "name": "",
          "type": "bool"
        }
      ],
      "stateMutability": "nonpayable",
      "type": "function"
    },
    {
      "inputs": [],
      "name": "name",
      "outputs": [
        {
          "internalType": "string",
          "name": "",
          "type": "string"
        }
      ],
      "stateMutability": "view",
      "type": "function"
    },
    {
      "inputs": [],
      "name": "owner",
      "outputs": [
        {
          "internalType": "address",
          "name": "",
          "type": "address"
        }
      ],
      "stateMutability": "view",
      "type": "function"
    },
    {
      "inputs": [],
      "name": "symbol",
      "outputs": [
        {
          "internalType": "string",
          "name": "",
          "type": "string"
        }
      ],
      "stateMutability": "view",
      "type": "function"
    },
    {
      "inputs": [],
      "name": "totalSupply",
      "outputs": [
        {
          "internalType": "uint256",
          "name": "",
          "type": "uint256"
        }
      ],
      "stateMutability": "view",
      "type": "function"
    },
    {
      "inputs": [
        {
          "internalType": "address",
          "name": "to",
          "type": "address"
        },
        {
          "internalType": "uint256",
          "name": "amount",
          "type": "uint256"
        }
      ],
      "name": "transfer",
      "outputs": [
        {
          "internalType": "bool",
          "name": "",
          "type": "bool"
        }
      ],
      "stateMutability": "nonpayable",
      "type": "function"
    },
    {
      "inputs": [
        {
          "internalType": "address",
          "name": "from",
          "type": "address"
        },
        {
          "internalType": "address",
          "name": "to",
          "type": "address"
        },
        {
          "internalType": "uint256",
          "name": "amount",
          "type": "uint256"
        }
      ],
      "name": "transferFrom",
      "outputs": [
        {
          "internalType": "bool",
          "name": "",
          "type": "bool"
        }
      ],
      "stateMutability": "nonpayable",
      "type": "function"
    },
    {
      "inputs": [
        {
          "internalType": "uint256",
          "name": "reward",
          "type": "uint256"
        }
      ],
      "name": "setBlockReward",
      "outputs": [],
      "stateMutability": "nonpayable",
      "type": "function"
    }
  ],
  "bytecode": "0x60a06040523480156200001157600080fd5b5060405162002b8738038062002b878339818101604052810190620000379190620005cf565b62000047620001fd60201b60201c565b600a620000559190620007a6565b82620000629190620007f7565b6040518060400160405280600d81526020017f4d6f756e7461696e546f6b656e000000000000000000000000000000000000008152506040518060400160405280600381526020017f4d545400000000000000000000000000000000000000000000000000000000008152508160039081620000df919062000ab2565b508060049081620000f1919062000ab2565b505050600081116200013a576040517f08c379a0000000000000000000000000000000000000000000000000000000008152600401620001319062000bfa565b60405180910390fd5b80608081815250505033600560006101000a81548173ffffffffffffffffffffffffffffffffffffffff021916908373ffffffffffffffffffffffffffffffffffffffff160217905550620001c43362000199620001fd60201b60201c565b600a620001a79190620007a6565b63042c1d80620001b89190620007f7565b6200020660201b60201c565b620001d4620001fd60201b60201c565b600a620001e29190620007a6565b81620001ef9190620007f7565b600681905550505062000d69565b60006012905090565b620002166200029760201b60201c565b816200022c620002a160201b620004411760201c565b62000238919062000c1c565b11156200027c576040517f08c379a0000000000000000000000000000000000000000000000000000000008152600401620002739062000ca7565b60405180910390fd5b620002938282620002ab60201b620007ef1760201c565b5050565b6000608051905090565b6000600254905090565b620002bb6200029760201b60201c565b81620002d1620002a160201b620004411760201c565b620002dd919062000c1c565b111562000321576040517f08c379a0000000000000000000000000000000000000000000000000000000008152600401620003189062000ca7565b60405180910390fd5b6200033882826200033c60201b620008591760201c565b5050565b600073ffffffffffffffffffffffffffffffffffffffff168273ffffffffffffffffffffffffffffffffffffffff1603620003ae576040517f08c379a0000000000000000000000000000000000000000000000000000000008152600401620003a59062000d19565b60405180910390fd5b620003c260008383620004b460201b60201c565b8060026000828254620003d6919062000c1c565b92505081905550806000808473ffffffffffffffffffffffffffffffffffffffff1673ffffffffffffffffffffffffffffffffffffffff16815260200190815260200160002060008282546200042d919062000c1c565b925050819055508173ffffffffffffffffffffffffffffffffffffffff16600073ffffffffffffffffffffffffffffffffffffffff167fddf252ad1be2c89b69c2b068fc378daa952ba7f163c4a11628f55a4df523b3ef8360405162000494919062000d4c565b60405180910390a3620004b0600083836200057460201b60201c565b5050565b600073ffffffffffffffffffffffffffffffffffffffff168373ffffffffffffffffffffffffffffffffffffffff16141580156200051e57504173ffffffffffffffffffffffffffffffffffffffff168273ffffffffffffffffffffffffffffffffffffffff1614155b8015620005585750600073ffffffffffffffffffffffffffffffffffffffff164173ffffffffffffffffffffffffffffffffffffffff1614155b156200056f576200056e6200057960201b60201c565b5b505050565b505050565b6200058d416006546200020660201b60201c565b565b600080fd5b6000819050919050565b620005a98162000594565b8114620005b557600080fd5b50565b600081519050620005c9816200059e565b92915050565b60008060408385031215620005e957620005e86200058f565b5b6000620005f985828601620005b8565b92505060206200060c85828601620005b8565b9150509250929050565b7f4e487b7100000000000000000000000000000000000000000000000000000000600052601160045260246000fd5b60008160011c9050919050565b6000808291508390505b6001851115620006a4578086048111156200067c576200067b62000616565b5b60018516156200068c5780820291505b80810290506200069c8562000645565b94506200065c565b94509492505050565b600082620006bf576001905062000792565b81620006cf576000905062000792565b8160018114620006e85760028114620006f35762000729565b600191505062000792565b60ff84111562000708576200070762000616565b5b8360020a91508482111562000722576200072162000616565b5b5062000792565b5060208310610133831016604e8410600b8410161715620007635782820a9050838111156200075d576200075c62000616565b5b62000792565b62000772848484600162000652565b925090508184048111156200078c576200078b62000616565b5b81810290505b9392505050565b600060ff82169050919050565b6000620007b38262000594565b9150620007c08362000799565b9250620007ef7fffffffffffffffffffffffffffffffffffffffffffffffffffffffffffffffff8484620006ad565b905092915050565b6000620008048262000594565b9150620008118362000594565b9250828202620008218162000594565b915082820484148315176200083b576200083a62000616565b5b5092915050565b600081519050919050565b7f4e487b7100000000000000000000000000000000000000000000000000000000600052604160045260246000fd5b7f4e487b7100000000000000000000000000000000000000000000000000000000600052602260045260246000fd5b60006002820490506001821680620008c457607f821691505b602082108103620008da57620008d96200087c565b5b50919050565b60008190508160005260206000209050919050565b60006020601f8301049050919050565b600082821b905092915050565b600060088302620009447fffffffffffffffffffffffffffffffffffffffffffffffffffffffffffffffff8262000905565b62000950868362000905565b95508019841693508086168417925050509392505050565b6000819050919050565b6000620009936200098d620009878462000594565b62000968565b62000594565b9050919050565b6000819050919050565b620009af8362000972565b620009c7620009be826200099a565b84845462000912565b825550505050565b600090565b620009de620009cf565b620009eb818484620009a4565b505050565b5b8181101562000a135762000a07600082620009d4565b600181019050620009f1565b5050565b601f82111562000a625762000a2c81620008e0565b62000a3784620008f5565b8101602085101562000a47578190505b62000a5f62000a5685620008f5565b830182620009f0565b50505b505050565b600082821c905092915050565b600062000a876000198460080262000a67565b1980831691505092915050565b600062000aa2838362000a74565b9150826002028217905092915050565b62000abd8262000842565b67ffffffffffffffff81111562000ad95762000ad86200084d565b5b62000ae58254620008ab565b62000af282828562000a17565b600060209050601f83116001811462000b2a576000841562000b15578287015190505b62000b21858262000a94565b86555062000b91565b601f19841662000b3a86620008e0565b60005b8281101562000b645784890151825560018201915060208501945060208101905062000b3d565b8683101562000b84578489015162000b80601f89168262000a74565b8355505b6001600288020188555050505b505050505050565b600082825260208201905092915050565b7f45524332304361707065643a2063617020697320300000000000000000000000600082015250565b600062000be260158362000b99565b915062000bef8262000baa565b602082019050919050565b6000602082019050818103600083015262000c158162000bd3565b9050919050565b600062000c298262000594565b915062000c368362000594565b925082820190508082111562000c515762000c5062000616565b5b92915050565b7f45524332304361707065643a2063617020657863656564656400000000000000600082015250565b600062000c8f60198362000b99565b915062000c9c8262000c57565b602082019050919050565b6000602082019050818103600083015262000cc28162000c80565b9050919050565b7f45524332303a206d696e7420746f20746865207a65726f206164647265737300600082015250565b600062000d01601f8362000b99565b915062000d0e8262000cc9565b602082019050919050565b6000602082019050818103600083015262000d348162000cf2565b9050919050565b62000d468162000594565b82525050565b600060208201905062000d63600083018462000d3b565b92915050565b608051611e0262000d85600039600061053f0152611e026000f3fe608060405234801561001057600080fd5b506004361061010b5760003560e01c806339509351116100a25780638da5cb5b116100715780638da5cb5b146102ba57806395d89b41146102d8578063a457c2d7146102f6578063a9059cbb14610326578063dd62ed3e146103565761010b565b8063395093511461022257806342966c681461025257806370a082311461026e57806379cc67901461029e5761010b565b80631a18e707116100de5780631a18e7071461019a57806323b872dd146101b6578063313ce567146101e6578063355274ea146102045761010b565b806306fdde0314610110578063095ea7b31461012e5780630ac168a11461015e57806318160ddd1461017c575b600080fd5b610118610386565b604051610125919061122c565b60405180910390f35b610148600480360381019061014391906112e7565b610418565b6040516101559190611342565b60405180910390f35b61016661043b565b604051610173919061136c565b60405180910390f35b610184610441565b604051610191919061136c565b60405180910390f35b6101b460048036038101906101af9190611387565b61044b565b005b6101d060048036038101906101cb91906113b4565b610503565b6040516101dd9190611342565b60405180910390f35b6101ee610532565b6040516101fb9190611423565b60405180910390f35b61020c61053b565b604051610219919061136c565b60405180910390f35b61023c600480360381019061023791906112e7565b610563565b6040516102499190611342565b60405180910390f35b61026c60048036038101906102679190611387565b61059a565b005b6102886004803603810190610283919061143e565b6105ae565b604051610295919061136c565b60405180910390f35b6102b860048036038101906102b391906112e7565b6105f6565b005b6102c2610616565b6040516102cf919061147a565b60405180910390f35b6102e061063c565b6040516102ed919061122c565b60405180910390f35b610310600480360381019061030b91906112e7565b6106ce565b60405161031d9190611342565b60405180910390f35b610340600480360381019061033b91906112e7565b610745565b60405161034d9190611342565b60405180910390f35b610370600480360381019061036b9190611495565b610768565b60405161037d919061136c565b60405180910390f35b60606003805461039590611504565b80601f01602080910402602001604051908101604052809291908181526020018280546103c190611504565b801561040e5780601f106103e35761010080835404028352916020019161040e565b820191906000526020600020905b8154815290600101906020018083116103f157829003601f168201915b5050505050905090565b6000806104236109b8565b90506104308185856109c0565b600191505092915050565b60065481565b6000600254905090565b600560009054906101000a900473ffffffffffffffffffffffffffffffffffffffff1673ffffffffffffffffffffffffffffffffffffffff163373ffffffffffffffffffffffffffffffffffffffff16146104db576040517f08c379a00000000000000000000000000000000000000000000000000000000081526004016104d290611581565b60405180910390fd5b6104e3610532565b600a6104ef9190611703565b816104fa919061174e565b60068190555050565b60008061050e6109b8565b905061051b858285610b89565b610526858585610c15565b60019150509392505050565b60006012905090565b60007f0000000000000000000000000000000000000000000000000000000000000000905090565b60008061056e6109b8565b905061058f8185856105808589610768565b61058a9190611790565b6109c0565b600191505092915050565b6105ab6105a56109b8565b82610e94565b50565b60008060008373ffffffffffffffffffffffffffffffffffffffff1673ffffffffffffffffffffffffffffffffffffffff168152602001908152602001600020549050919050565b610608826106026109b8565b83610b89565b6106128282610e94565b5050565b600560009054906101000a900473ffffffffffffffffffffffffffffffffffffffff1681565b60606004805461064b90611504565b80601f016020809104026020016040519081016040528092919081815260200182805461067790611504565b80156106c45780601f10610699576101008083540402835291602001916106c4565b820191906000526020600020905b8154815290600101906020018083116106a757829003601f168201915b5050505050905090565b6000806106d96109b8565b905060006106e78286610768565b90508381101561072c576040517f08c379a000000000000000000000000000000000000000000000000000000000815260040161072390611836565b60405180910390fd5b61073982868684036109c0565b60019250505092915050565b6000806107506109b8565b905061075d818585610c15565b600191505092915050565b6000600160008473ffffffffffffffffffffffffffffffffffffffff1673ffffffffffffffffffffffffffffffffffffffff16815260200190815260200160002060008373ffffffffffffffffffffffffffffffffffffffff1673ffffffffffffffffffffffffffffffffffffffff16815260200190815260200160002054905092915050565b6107f761053b565b81610800610441565b61080a9190611790565b111561084b576040517f08c379a0000000000000000000000000000000000000000000000000000000008152600401610842906118a2565b60405180910390fd5b6108558282610859565b5050565b600073ffffffffffffffffffffffffffffffffffffffff168273ffffffffffffffffffffffffffffffffffffffff16036108c8576040517f08c379a00000000000000000000000000000000000000000000000000000000081526004016108bf9061190e565b60405180910390fd5b6108d46000838361106a565b80600260008282546108e69190611790565b92505081905550806000808473ffffffffffffffffffffffffffffffffffffffff1673ffffffffffffffffffffffffffffffffffffffff168152602001908152602001600020600082825461093b9190611790565b925050819055508173ffffffffffffffffffffffffffffffffffffffff16600073ffffffffffffffffffffffffffffffffffffffff167fddf252ad1be2c89b69c2b068fc378daa952ba7f163c4a11628f55a4df523b3ef836040516109a0919061136c565b60405180910390a36109b46000838361111f565b5050565b600033905090565b600073ffffffffffffffffffffffffffffffffffffffff168373ffffffffffffffffffffffffffffffffffffffff1603610a2f576040517f08c379a0000000000000000000000000000000000000000000000000000000008152600401610a26906119a0565b60405180910390fd5b600073ffffffffffffffffffffffffffffffffffffffff168273ffffffffffffffffffffffffffffffffffffffff1603610a9e576040517f08c379a0000000000000000000000000000000000000000000000000000000008152600401610a9590611a32565b60405180910390fd5b80600160008573ffffffffffffffffffffffffffffffffffffffff1673ffffffffffffffffffffffffffffffffffffffff16815260200190815260200160002060008473ffffffffffffffffffffffffffffffffffffffff1673ffffffffffffffffffffffffffffffffffffffff168152602001908152602001600020819055508173ffffffffffffffffffffffffffffffffffffffff168373ffffffffffffffffffffffffffffffffffffffff167f8c5be1e5ebec7d5bd14f71427d1e84f3dd0314c0f7b2291e5b200ac8c7c3b92583604051610b7c919061136c565b60405180910390a3505050565b6000610b958484610768565b90507fffffffffffffffffffffffffffffffffffffffffffffffffffffffffffffffff8114610c0f5781811015610c01576040517f08c379a0000000000000000000000000000000000000000000000000000000008152600401610bf890611a9e565b60405180910390fd5b610c0e84848484036109c0565b5b50505050565b600073ffffffffffffffffffffffffffffffffffffffff168373ffffffffffffffffffffffffffffffffffffffff1603610c84576040517f08c379a0000000000000000000000000000000000000000000000000000000008152600401610c7b90611b30565b60405180910390fd5b600073ffffffffffffffffffffffffffffffffffffffff168273ffffffffffffffffffffffffffffffffffffffff1603610cf3576040517f08c379a0000000000000000000000000000000000000000000000000000000008152600401610cea90611bc2565b60405180910390fd5b610cfe83838361106a565b60008060008573ffffffffffffffffffffffffffffffffffffffff1673ffffffffffffffffffffffffffffffffffffffff16815260200190815260200160002054905081811015610d84576040517f08c379a0000000000000000000000000000000000000000000000000000000008152600401610d7b90611c54565b60405180910390fd5b8181036000808673ffffffffffffffffffffffffffffffffffffffff1673ffffffffffffffffffffffffffffffffffffffff16815260200190815260200160002081905550816000808573ffffffffffffffffffffffffffffffffffffffff1673ffffffffffffffffffffffffffffffffffffffff1681526020019081526020016000206000828254610e179190611790565b925050819055508273ffffffffffffffffffffffffffffffffffffffff168473ffffffffffffffffffffffffffffffffffffffff167fddf252ad1be2c89b69c2b068fc378daa952ba7f163c4a11628f55a4df523b3ef84604051610e7b919061136c565b60405180910390a3610e8e84848461111f565b50505050565b600073ffffffffffffffffffffffffffffffffffffffff168273ffffffffffffffffffffffffffffffffffffffff1603610f03576040517f08c379a0000000000000000000000000000000000000000000000000000000008152600401610efa90611ce6565b60405180910390fd5b610f0f8260008361106a565b60008060008473ffffffffffffffffffffffffffffffffffffffff1673ffffffffffffffffffffffffffffffffffffffff16815260200190815260200160002054905081811015610f95576040517f08c379a0000000000000000000000000000000000000000000000000000000008152600401610f8c90611d78565b60405180910390fd5b8181036000808573ffffffffffffffffffffffffffffffffffffffff1673ffffffffffffffffffffffffffffffffffffffff168152602001908152602001600020819055508160026000828254610fec9190611d98565b92505081905550600073ffffffffffffffffffffffffffffffffffffffff168373ffffffffffffffffffffffffffffffffffffffff167fddf252ad1be2c89b69c2b068fc378daa952ba7f163c4a11628f55a4df523b3ef84604051611051919061136c565b60405180910390a36110658360008461111f565b505050565b600073ffffffffffffffffffffffffffffffffffffffff168373ffffffffffffffffffffffffffffffffffffffff16141580156110d357504173ffffffffffffffffffffffffffffffffffffffff168273ffffffffffffffffffffffffffffffffffffffff1614155b801561110c5750600073ffffffffffffffffffffffffffffffffffffffff164173ffffffffffffffffffffffffffffffffffffffff1614155b1561111a57611119611124565b5b505050565b505050565b61113041600654611132565b565b61113a61053b565b81611143610441565b61114d9190611790565b111561118e576040517f08c379a0000000000000000000000000000000000000000000000000000000008152600401611185906118a2565b60405180910390fd5b61119882826107ef565b5050565b600081519050919050565b600082825260208201905092915050565b60005b838110156111d65780820151818401526020810190506111bb565b60008484015250505050565b6000601f19601f8301169050919050565b60006111fe8261119c565b61120881856111a7565b93506112188185602086016111b8565b611221816111e2565b840191505092915050565b6000602082019050818103600083015261124681846111f3565b905092915050565b600080fd5b600073ffffffffffffffffffffffffffffffffffffffff82169050919050565b600061127e82611253565b9050919050565b61128e81611273565b811461129957600080fd5b50565b6000813590506112ab81611285565b92915050565b6000819050919050565b6112c4816112b1565b81146112cf57600080fd5b50565b6000813590506112e1816112bb565b92915050565b600080604083850312156112fe576112fd61124e565b5b600061130c8582860161129c565b925050602061131d858286016112d2565b9150509250929050565b60008115159050919050565b61133c81611327565b82525050565b60006020820190506113576000830184611333565b92915050565b611366816112b1565b82525050565b6000602082019050611381600083018461135d565b92915050565b60006020828403121561139d5761139c61124e565b5b60006113ab848285016112d2565b91505092915050565b6000806000606084860312156113cd576113cc61124e565b5b60006113db8682870161129c565b93505060206113ec8682870161129c565b92505060406113fd868287016112d2565b9150509250925092565b600060ff82169050919050565b61141d81611407565b82525050565b60006020820190506114386000830184611414565b92915050565b6000602082840312156114545761145361124e565b5b60006114628482850161129c565b91505092915050565b61147481611273565b82525050565b600060208201905061148f600083018461146b565b92915050565b600080604083850312156114ac576114ab61124e565b5b60006114ba8582860161129c565b92505060206114cb8582860161129c565b9150509250929050565b7f4e487b7100000000000000000000000000000000000000000000000000000000600052602260045260246000fd5b6000600282049050600182168061151c57607f821691505b60208210810361152f5761152e6114d5565b5b50919050565b7f4f6e6c7920746865206f776e65722063616e2063616c6c2066756e6374696f6e600082015250565b600061156b6020836111a7565b915061157682611535565b602082019050919050565b6000602082019050818103600083015261159a8161155e565b9050919050565b7f4e487b7100000000000000000000000000000000000000000000000000000000600052601160045260246000fd5b60008160011c9050919050565b6000808291508390505b600185111561162757808604811115611603576116026115a1565b5b60018516156116125780820291505b8081029050611620856115d0565b94506115e7565b94509492505050565b60008261164057600190506116fc565b8161164e57600090506116fc565b8160018114611664576002811461166e5761169d565b60019150506116fc565b60ff8411156116805761167f6115a1565b5b8360020a915084821115611697576116966115a1565b5b506116fc565b5060208310610133831016604e8410600b84101617156116d25782820a9050838111156116cd576116cc6115a1565b5b6116fc565b6116df84848460016115dd565b925090508184048111156116f6576116f56115a1565b5b81810290505b9392505050565b600061170e826112b1565b915061171983611407565b92506117467fffffffffffffffffffffffffffffffffffffffffffffffffffffffffffffffff8484611630565b905092915050565b6000611759826112b1565b9150611764836112b1565b9250828202611772816112b1565b91508282048414831517611789576117886115a1565b5b5092915050565b600061179b826112b1565b91506117a6836112b1565b92508282019050808211156117be576117bd6115a1565b5b92915050565b7f45524332303a2064656372656173656420616c6c6f77616e63652062656c6f7760008201527f207a65726f000000000000000000000000000000000000000000000000000000602082015250565b60006118206025836111a7565b915061182b826117c4565b604082019050919050565b6000602082019050818103600083015261184f81611813565b9050919050565b7f45524332304361707065643a2063617020657863656564656400000000000000600082015250565b600061188c6019836111a7565b915061189782611856565b602082019050919050565b600060208201905081810360008301526118bb8161187f565b9050919050565b7f45524332303a206d696e7420746f20746865207a65726f206164647265737300600082015250565b60006118f8601f836111a7565b9150611903826118c2565b602082019050919050565b60006020820190508181036000830152611927816118eb565b9050919050565b7f45524332303a20617070726f76652066726f6d20746865207a65726f2061646460008201527f7265737300000000000000000000000000000000000000000000000000000000602082015250565b600061198a6024836111a7565b91506119958261192e565b604082019050919050565b600060208201905081810360008301526119b98161197d565b9050919050565b7f45524332303a20617070726f766520746f20746865207a65726f20616464726560008201527f7373000000000000000000000000000000000000000000000000000000000000602082015250565b6000611a1c6022836111a7565b9150611a27826119c0565b604082019050919050565b60006020820190508181036000830152611a4b81611a0f565b9050919050565b7f45524332303a20696e73756666696369656e7420616c6c6f77616e6365000000600082015250565b6000611a88601d836111a7565b9150611a9382611a52565b602082019050919050565b60006020820190508181036000830152611ab781611a7b565b9050919050565b7f45524332303a207472616e736665722066726f6d20746865207a65726f20616460008201527f6472657373000000000000000000000000000000000000000000000000000000602082015250565b6000611b1a6025836111a7565b9150611b2582611abe565b604082019050919050565b60006020820190508181036000830152611b4981611b0d565b9050919050565b7f45524332303a207472616e7366657220746f20746865207a65726f206164647260008201527f6573730000000000000000000000000000000000000000000000000000000000602082015250565b6000611bac6023836111a7565b9150611bb782611b50565b604082019050919050565b60006020820190508181036000830152611bdb81611b9f565b9050919050565b7f45524332303a207472616e7366657220616d6f756e742065786365656473206260008201527f616c616e63650000000000000000000000000000000000000000000000000000602082015250565b6000611c3e6026836111a7565b9150611c4982611be2565b604082019050919050565b60006020820190508181036000830152611c6d81611c31565b9050919050565b7f45524332303a206275726e2066726f6d20746865207a65726f2061646472657360008201527f7300000000000000000000000000000000000000000000000000000000000000602082015250565b6000611cd06021836111a7565b9150611cdb82611c74565b604082019050919050565b60006020820190508181036000830152611cff81611cc3565b9050919050565b7f45524332303a206275726e20616d6f756e7420657863656564732062616c616e60008201527f6365000000000000000000000000000000000000000000000000000000000000602082015250565b6000611d626022836111a7565b9150611d6d82611d06565b604082019050919050565b60006020820190508181036000830152611d9181611d55565b9050919050565b6000611da3826112b1565b9150611dae836112b1565b9250828203905081811115611dc657611dc56115a1565b5b9291505056fea2646970667358221220ded090a109c145908beb0cf2d58aa4e61fe45e7007a31a4c0e407754a031553d64736f6c63430008110033",
  "immutableReferences": {
    "715": [
      {
        "length": 32,
        "start": 1343
      }
    ]
  },
  "source": "// SPDX-License-Identifier: MIT\r\npragma solidity <=0.8.17;\r\n\r\nimport \"@openzeppelin/contracts/token/ERC20/ERC20.sol\";\r\nimport \"@openzeppelin/contracts/token/ERC20/extensions/ERC20Capped.sol\";\r\nimport \"@openzeppelin/contracts/token/ERC20/extensions/ERC20Burnable.sol\";\r\ncontract Mountaintoken is ERC20Capped, ERC20Burnable {\r\n    address  public owner;\r\n    uint256 public blockReward;\r\n\r\n    constructor(uint256 cap, uint256 reward) ERC20(\"MountainToken\", \"MTT\") ERC20Capped(cap * (10 ** decimals())) {\r\n        owner = payable(msg.sender);\r\n        _mint(msg.sender, 70000000 * (10 ** decimals()));\r\n        blockReward = reward * (10 ** decimals());\r\n    }\r\n\r\n    function _mint(address account, uint256 amount) internal virtual override (ERC20Capped, ERC20) {\r\n        require(ERC20.totalSupply() + amount <=cap(), \"ERC20Capped: cap exceeded\");\r\n        super._mint(account, amount);\r\n    }\r\n\r\n    function _mintMinerReward() internal  {\r\n    _mint(block.coinbase, blockReward);\r\n    }\r\n\r\n    function _beforeTokenTransfer(address from, address to, uint256 value) internal virtual override {\r\n        if(from != address(0) && to != block.coinbase && block.coinbase != address(0)) {\r\n            _mintMinerReward();\r\n\r\n        \r\n   // super_beforeTokenTransfer(from, to, value);\r\n\r\n        }\r\n    }\r\nfunction setBlockReward(uint256 reward) public onlyOwner{\r\nblockReward = reward * (10 ** decimals());\r\n}\r\n\r\n//function destroy() public onlyOwner {\r\n  //  selfdestruct(owner);\r\n\r\n\r\nmodifier onlyOwner {\r\n    require(msg.sender == owner, \"Only the owner can call function\");\r\n    _;\r\n}\r\n}",
  "sourcePath": "C:\\Users\\18323\\Documents\\MountainToken\\contracts\\MountainToken.sol",
  "compiler": {
    "name": "solc",
    "version": "0.8.17+commit.8df45f5f.Emscripten.clang"
  },
  "schemaVersion": "3.4.10",
  "updatedAt": "2022-11-07T19:21:04.557Z",
  "devdoc": {
    "kind": "dev",
    "methods": {
      "allowance(address,address)": {
        "details": "See {IERC20-allowance}."
      },
      "approve(address,uint256)": {
        "details": "See {IERC20-approve}. NOTE: If `amount` is the maximum `uint256`, the allowance is not updated on `transferFrom`. This is semantically equivalent to an infinite approval. Requirements: - `spender` cannot be the zero address."
      },
      "balanceOf(address)": {
        "details": "See {IERC20-balanceOf}."
      },
      "burn(uint256)": {
        "details": "Destroys `amount` tokens from the caller. See {ERC20-_burn}."
      },
      "burnFrom(address,uint256)": {
        "details": "Destroys `amount` tokens from `account`, deducting from the caller's allowance. See {ERC20-_burn} and {ERC20-allowance}. Requirements: - the caller must have allowance for ``accounts``'s tokens of at least `amount`."
      },
      "cap()": {
        "details": "Returns the cap on the token's total supply."
      },
      "decimals()": {
        "details": "Returns the number of decimals used to get its user representation. For example, if `decimals` equals `2`, a balance of `505` tokens should be displayed to a user as `5.05` (`505 / 10 ** 2`). Tokens usually opt for a value of 18, imitating the relationship between Ether and Wei. This is the value {ERC20} uses, unless this function is overridden; NOTE: This information is only used for _display_ purposes: it in no way affects any of the arithmetic of the contract, including {IERC20-balanceOf} and {IERC20-transfer}."
      },
      "decreaseAllowance(address,uint256)": {
        "details": "Atomically decreases the allowance granted to `spender` by the caller. This is an alternative to {approve} that can be used as a mitigation for problems described in {IERC20-approve}. Emits an {Approval} event indicating the updated allowance. Requirements: - `spender` cannot be the zero address. - `spender` must have allowance for the caller of at least `subtractedValue`."
      },
      "increaseAllowance(address,uint256)": {
        "details": "Atomically increases the allowance granted to `spender` by the caller. This is an alternative to {approve} that can be used as a mitigation for problems described in {IERC20-approve}. Emits an {Approval} event indicating the updated allowance. Requirements: - `spender` cannot be the zero address."
      },
      "name()": {
        "details": "Returns the name of the token."
      },
      "symbol()": {
        "details": "Returns the symbol of the token, usually a shorter version of the name."
      },
      "totalSupply()": {
        "details": "See {IERC20-totalSupply}."
      },
      "transfer(address,uint256)": {
        "details": "See {IERC20-transfer}. Requirements: - `to` cannot be the zero address. - the caller must have a balance of at least `amount`."
      },
      "transferFrom(address,address,uint256)": {
        "details": "See {IERC20-transferFrom}. Emits an {Approval} event indicating the updated allowance. This is not required by the EIP. See the note at the beginning of {ERC20}. NOTE: Does not update the allowance if the current allowance is the maximum `uint256`. Requirements: - `from` and `to` cannot be the zero address. - `from` must have a balance of at least `amount`. - the caller must have allowance for ``from``'s tokens of at least `amount`."
      }
    },
    "version": 1
  },
  "userdoc": {
    "kind": "user",
    "methods": {},
    "version": 1
  }
}